{
  "contractName": "tictactoe",
  "abi": [
    {
      "constant": false,
      "inputs": [],
      "name": "joinplayer1",
      "outputs": [
        {
          "name": "",
          "type": "string"
        }
      ],
      "payable": true,
      "stateMutability": "payable",
      "type": "function"
    },
    {
      "constant": true,
      "inputs": [],
      "name": "status",
      "outputs": [
        {
          "name": "",
          "type": "string"
        }
      ],
      "payable": false,
      "stateMutability": "view",
      "type": "function"
    },
    {
      "constant": false,
      "inputs": [],
      "name": "joinplayer2",
      "outputs": [
        {
          "name": "",
          "type": "string"
        }
      ],
      "payable": true,
      "stateMutability": "payable",
      "type": "function"
    },
    {
      "constant": false,
      "inputs": [],
      "name": "init_board",
      "outputs": [],
      "payable": false,
      "stateMutability": "nonpayable",
      "type": "function"
    },
    {
      "constant": false,
      "inputs": [
        {
          "name": "cell",
          "type": "uint256"
        },
        {
          "name": "pl",
          "type": "uint256"
        }
      ],
      "name": "move",
      "outputs": [
        {
          "name": "",
          "type": "int256"
        }
      ],
      "payable": false,
      "stateMutability": "nonpayable",
      "type": "function"
    },
    {
      "constant": true,
      "inputs": [],
      "name": "isWin",
      "outputs": [
        {
          "name": "",
          "type": "uint256"
        }
      ],
      "payable": false,
      "stateMutability": "view",
      "type": "function"
    },
    {
      "constant": true,
      "inputs": [],
      "name": "gameStatus",
      "outputs": [
        {
          "name": "",
          "type": "string"
        }
      ],
      "payable": false,
      "stateMutability": "view",
      "type": "function"
    },
    {
      "constant": false,
      "inputs": [
        {
          "name": "mov",
          "type": "uint256"
        }
      ],
      "name": "game",
      "outputs": [],
      "payable": false,
      "stateMutability": "nonpayable",
      "type": "function"
    }
  ],
  "bytecode": "0x60806040526009604051908082528060200260200182016040528015620000355781602001602082028038833980820191505090505b50600090805190602001906200004d929190620002e5565b5061010060405190810160405280606060405190810160405280600060ff168152602001600160ff168152602001600260ff168152508152602001606060405190810160405280600360ff168152602001600460ff168152602001600560ff168152508152602001606060405190810160405280600660ff168152602001600760ff168152602001600860ff168152508152602001606060405190810160405280600060ff168152602001600360ff168152602001600660ff168152508152602001606060405190810160405280600160ff168152602001600460ff168152602001600760ff168152508152602001606060405190810160405280600260ff168152602001600560ff168152602001600860ff168152508152602001606060405190810160405280600060ff168152602001600460ff168152602001600860ff168152508152602001606060405190810160405280600260ff168152602001600460ff168152602001600660ff168152508152506003906008620001d392919062000337565b5060006004556000600760006101000a81548160ff0219169083151502179055506000600760016101000a81548160ff0219169083151502179055506000600760026101000a81548160ff021916908315150217905550600060085560006009556002604051908082528060200260200182016040528015620002655781602001602082028038833980820191505090505b50600a90805190602001906200027d929190620002e5565b506000600b556040805190810160405280600581526020017f76616c6964000000000000000000000000000000000000000000000000000000815250600c9080519060200190620002d092919062000399565b50348015620002de57600080fd5b50620004f3565b82805482825590600052602060002090810192821562000324579160200282015b828111156200032357825182559160200191906001019062000306565b5b50905062000333919062000420565b5090565b82805482825590600052602060002090810192821562000386579160200282015b8281111562000385578251829060036200037492919062000448565b509160200191906001019062000358565b5b5090506200039591906200049f565b5090565b828054600181600116156101000203166002900490600052602060002090601f016020900481019282601f10620003dc57805160ff19168380011785556200040d565b828001600101855582156200040d579182015b828111156200040c578251825591602001919060010190620003ef565b5b5090506200041c919062000420565b5090565b6200044591905b808211156200044157600081600090555060010162000427565b5090565b90565b8280548282559060005260206000209081019282156200048c579160200282015b828111156200048b578251829060ff1690559160200191906001019062000469565b5b5090506200049b919062000420565b5090565b620004cd91905b80821115620004c95760008181620004bf9190620004d0565b50600101620004a6565b5090565b90565b5080546000825590600052602060002090810190620004f0919062000420565b50565b6119de80620005036000396000f30060806040526004361061008e576000357c0100000000000000000000000000000000000000000000000000000000900463ffffffff1680630867408f14610093578063200d2ed2146100de57806346609d7f1461016e57806356f251d714610199578063722fed7e1461021c578063c27da97c146102ac578063cddbe7291461032f578063da715ec31461035c575b600080fd5b34801561009f57600080fd5b506100c86004803603810190808035906020019092919080359060200190929190505050610373565b6040518082815260200191505060405180910390f35b3480156100ea57600080fd5b506100f361048b565b6040518080602001828103825283818151815260200191508051906020019080838360005b83811015610133578082015181840152602081019050610118565b50505050905090810190601f1680156101605780820380516001836020036101000a031916815260200191505b509250505060405180910390f35b34801561017a57600080fd5b5061018361072c565b6040518082815260200191505060405180910390f35b6101a16108dd565b6040518080602001828103825283818151815260200191508051906020019080838360005b838110156101e15780820151818401526020810190506101c6565b50505050905090810190601f16801561020e5780820380516001836020036101000a031916815260200191505b509250505060405180910390f35b34801561022857600080fd5b50610231610ab4565b6040518080602001828103825283818151815260200191508051906020019080838360005b83811015610271578082015181840152602081019050610256565b50505050905090810190601f16801561029e5780820380516001836020036101000a031916815260200191505b509250505060405180910390f35b6102b4610b56565b6040518080602001828103825283818151815260200191508051906020019080838360005b838110156102f45780820151818401526020810190506102d9565b50505050905090810190601f1680156103215780820380516001836020036101000a031916815260200191505b509250505060405180910390f35b34801561033b57600080fd5b5061035a60048036038101908080359060200190929190505050610c59565b005b34801561036857600080fd5b506103716118d0565b005b60008060008481548110151561038557fe5b90600052602060002001541415156103bf577fffffffffffffffffffffffffffffffffffffffffffffffffffffffffffffffff9050610485565b6001600454016000848154811015156103d457fe5b906000526020600020018190555060016103ec61072c565b1415610423576001600a8381548110151561040357fe5b906000526020600020016000828254019250508190555060019050610485565b60016004600082825418925050819055506040805190810160405280600581526020017f76616c6964000000000000000000000000000000000000000000000000000000815250600c908051906020019061047f92919061190d565b50600090505b92915050565b60606000600b54141561064957600760009054906101000a900460ff161580156104c25750600760019054906101000a900460ff16155b15610504576040805190810160405280601881526020017f4e6f20706c6179657220686173206a6f696e65642079657400000000000000008152509050610729565b600760009054906101000a900460ff1615801561052d5750600760019054906101000a900460ff165b1561056f576040805190810160405280601981526020017f746869732063617365206973206e6f7420706f737369626c65000000000000008152509050610729565b600760009054906101000a900460ff1680156105985750600760019054906101000a900460ff16155b156105da576040805190810160405280601481526020017f57616974696e6720666f7220706c6179657220320000000000000000000000008152509050610729565b600760009054906101000a900460ff1680156106025750600760019054906101000a900460ff165b15610644576040805190810160405280601a81526020017f47616d652069732063757272656e746c7920676f696e67206f6e0000000000008152509050610729565b610728565b6001600b5414156106b857606060405190810160405280602281526020017f4861636b657220747279696e6720746f20656e74657220617320706c6179657281526020017f20310000000000000000000000000000000000000000000000000000000000008152509050610729565b6002600b54141561072757606060405190810160405280602281526020017f4861636b657220747279696e6720746f20656e74657220617320706c6179657281526020017f20320000000000000000000000000000000000000000000000000000000000008152509050610729565b5b5b90565b6000806060600091505b60088210156108d35760038281548110151561074e57fe5b906000526020600020018054806020026020016040519081016040528092919081815260200182805480156107a257602002820191906000526020600020905b81548152602001906001019080831161078e575b505050505090506000808260008151811015156107bb57fe5b906020019060200201518154811015156107d157fe5b90600052602060002001541415801561084b575060008160018151811015156107f657fe5b9060200190602002015181548110151561080c57fe5b9060005260206000200154600082600081518110151561082857fe5b9060200190602002015181548110151561083e57fe5b9060005260206000200154145b80156108b85750600081600281518110151561086357fe5b9060200190602002015181548110151561087957fe5b9060005260206000200154600082600081518110151561089557fe5b906020019060200201518154811015156108ab57fe5b9060005260206000200154145b156108c657600192506108d8565b8180600101925050610736565b600092505b505090565b6060600760009054906101000a900460ff161515610932576040805190810160405280601881526020017f7761697420666f7220706c617965723120746f206a6f696e00000000000000008152509050610ab1565b600760019054906101000a900460ff16801561099c57503373ffffffffffffffffffffffffffffffffffffffff16600260009054906101000a900473ffffffffffffffffffffffffffffffffffffffff1673ffffffffffffffffffffffffffffffffffffffff1614155b15610a0d576002600b81905550606060405190810160405280602681526020017f736f6d656f6e6520656c736520747279696e6720746f206a6f696e206173207081526020017f6c617965723200000000000000000000000000000000000000000000000000008152509050610ab1565b33600260006101000a81548173ffffffffffffffffffffffffffffffffffffffff021916908373ffffffffffffffffffffffffffffffffffffffff160217905550346006819055506001600760016101000a81548160ff0219169083151502179055506000600b819055506040805190810160405280601081526020017f47616d6520626567696e7321212121210000000000000000000000000000000081525090505b90565b6060600c8054600181600116156101000203166002900480601f016020809104026020016040519081016040528092919081815260200182805460018160011615610100020316600290048015610b4c5780601f10610b2157610100808354040283529160200191610b4c565b820191906000526020600020905b815481529060010190602001808311610b2f57829003601f168201915b5050505050905090565b6060600760009054906101000a900460ff1615610bb2576001600b819055506040805190810160405280601281526020017f412067616d6520696e2070726f677265737300000000000000000000000000008152509050610c56565b6000600b819055506001600760006101000a81548160ff02191690831515021790555033600160006101000a81548173ffffffffffffffffffffffffffffffffffffffff021916908373ffffffffffffffffffffffffffffffffffffffff160217905550346005819055506040805190810160405280601681526020017f596f75277665206a6f696e6564207468652067616d650000000000000000000081525090505b90565b6000806000806000600760009054906101000a900460ff161580610c8a5750600760019054906101000a900460ff16155b15610d0757606060405190810160405280602581526020017f43616e277420706c617920612067616d6520776974686f75742074776f20706c81526020017f6179657273000000000000000000000000000000000000000000000000000000815250600c9080519060200190610d0192919061190d565b506118c8565b6001861080610d165750600986115b15610d6c576040805190810160405280600c81526020017f496e76616c6964206d6f76650000000000000000000000000000000000000000815250600c9080519060200190610d6692919061190d565b506118c8565b60006008541480610d7f57506002600854145b1561126c5760001515600760029054906101000a900460ff1615151415610dd457610da86118d0565b600060098190555060006004819055506001600760026101000a81548160ff0219169083151502179055505b600160009054906101000a900473ffffffffffffffffffffffffffffffffffffffff1673ffffffffffffffffffffffffffffffffffffffff163373ffffffffffffffffffffffffffffffffffffffff16148015610e3357506000600454145b15610f5c57610e43866000610373565b94506001851415610ecc576040805190810160405280601481526020017f67616d6520776f6e20627920706c617965722031000000000000000000000000815250600c9080519060200190610e9992919061190d565b506008600081548092919060010191905055506000600760026101000a81548160ff0219169083151502179055506118c8565b7fffffffffffffffffffffffffffffffffffffffffffffffffffffffffffffffff851415610f45576040805190810160405280601381526020017f63656c6c20616c72656164792066696c6c656400000000000000000000000000815250600c9080519060200190610f3f92919061190d565b506118c8565b600960008154809291906001019190505550611136565b600260009054906101000a900473ffffffffffffffffffffffffffffffffffffffff1673ffffffffffffffffffffffffffffffffffffffff163373ffffffffffffffffffffffffffffffffffffffff16148015610fbb57506001600454145b156110e457610fcb866001610373565b93506001841415611054576040805190810160405280601481526020017f67616d6520776f6e20627920706c617965722032000000000000000000000000815250600c908051906020019061102192919061190d565b506008600081548092919060010191905055506000600760026101000a81548160ff0219169083151502179055506118c8565b7fffffffffffffffffffffffffffffffffffffffffffffffffffffffffffffffff8414156110cd576040805190810160405280601381526020017f63656c6c20616c72656164792066696c6c656400000000000000000000000000815250600c90805190602001906110c792919061190d565b506118c8565b600960008154809291906001019190505550611135565b6040805190810160405280601981526020017f497473206e6f7420796f7572207475726e20746f20706c617900000000000000815250600c908051906020019061112f92919061190d565b506118c8565b5b6009805414156111be576000600760026101000a81548160ff0219169083151502179055506008600081548092919060010191905055506040805190810160405280600a81526020017f4974732061206472617700000000000000000000000000000000000000000000815250600c90805190602001906111b892919061190d565b506118c8565b6000600454141561121a576040805190810160405280601281526020017f706c617965722032206d616465206d6f76650000000000000000000000000000815250600c908051906020019061121492919061190d565b50611267565b6040805190810160405280601281526020017f706c617965722031206d616465206d6f76650000000000000000000000000000815250600c908051906020019061126592919061190d565b505b611761565b6001600854148061127f57506003600854145b156117605760001515600760029054906101000a900460ff16151514156112cc57600060098190555060006004819055506001600760026101000a81548160ff0219169083151502179055505b600160009054906101000a900473ffffffffffffffffffffffffffffffffffffffff1673ffffffffffffffffffffffffffffffffffffffff163373ffffffffffffffffffffffffffffffffffffffff1614801561132b57506001600454145b156114545761133b866000610373565b925060018314156113c4576040805190810160405280601481526020017f67616d6520776f6e20627920706c617965722031000000000000000000000000815250600c908051906020019061139192919061190d565b506008600081548092919060010191905055506000600760026101000a81548160ff0219169083151502179055506118c8565b7fffffffffffffffffffffffffffffffffffffffffffffffffffffffffffffffff83141561143d576040805190810160405280601381526020017f63656c6c20616c72656164792066696c6c656400000000000000000000000000815250600c908051906020019061143792919061190d565b506118c8565b60096000815480929190600101919050555061162e565b600260009054906101000a900473ffffffffffffffffffffffffffffffffffffffff1673ffffffffffffffffffffffffffffffffffffffff163373ffffffffffffffffffffffffffffffffffffffff161480156114b357506000600454145b156115dc576114c3866001610373565b9150600182141561154c576040805190810160405280601481526020017f67616d6520776f6e20627920706c617965722032000000000000000000000000815250600c908051906020019061151992919061190d565b506008600081548092919060010191905055506000600760026101000a81548160ff0219169083151502179055506118c8565b7fffffffffffffffffffffffffffffffffffffffffffffffffffffffffffffffff8214156115c5576040805190810160405280601381526020017f63656c6c20616c72656164792066696c6c656400000000000000000000000000815250600c90805190602001906115bf92919061190d565b506118c8565b60096000815480929190600101919050555061162d565b6040805190810160405280601981526020017f497473206e6f7420796f7572207475726e20746f20706c617900000000000000815250600c908051906020019061162792919061190d565b506118c8565b5b6009805414156116b6576000600760026101000a81548160ff0219169083151502179055506008600081548092919060010191905055506040805190810160405280600a81526020017f4974732061206472617700000000000000000000000000000000000000000000815250600c90805190602001906116b092919061190d565b506118c8565b60016004541415611712576040805190810160405280601281526020017f706c617965722032206d616465206d6f76650000000000000000000000000000815250600c908051906020019061170c92919061190d565b5061175f565b6040805190810160405280601281526020017f706c617965722031206d616465206d6f76650000000000000000000000000000815250600c908051906020019061175d92919061190d565b505b5b5b600460085414156118c757600654600554019050600a600181548110151561178557fe5b9060005260206000200154600a60008154811015156117a057fe5b9060005260206000200154111561181f57600160009054906101000a900473ffffffffffffffffffffffffffffffffffffffff1673ffffffffffffffffffffffffffffffffffffffff166108fc829081150290604051600060405180830381858888f19350505050158015611819573d6000803e3d6000fd5b506118c6565b600a600081548110151561182f57fe5b9060005260206000200154600a600181548110151561184a57fe5b906000526020600020015411156118c557600260009054906101000a900473ffffffffffffffffffffffffffffffffffffffff1673ffffffffffffffffffffffffffffffffffffffff166108fc829081150290604051600060405180830381858888f193505050501580156118c3573d6000803e3d6000fd5b505b5b5b5b505050505050565b60008090505b600981101561190a57600080828154811015156118ef57fe5b906000526020600020018190555080806001019150506118d6565b50565b828054600181600116156101000203166002900490600052602060002090601f016020900481019282601f1061194e57805160ff191683800117855561197c565b8280016001018555821561197c579182015b8281111561197b578251825591602001919060010190611960565b5b509050611989919061198d565b5090565b6119af91905b808211156119ab576000816000905550600101611993565b5090565b905600a165627a7a7230582065fb4e1fd2ebd4f5c6b91a6f39c3630b503693ca4238a311295a0518682d99730029",
  "source": "pragma solidity >=0.4.22 <0.6.0;\n\n// \"x\" -> 1\n// \"o\" -> 2\n\ncontract tictactoe {\n    uint[] board = new uint[](9);\n    address player1;\n    address player2;\n    uint[][] pattern = [[0,1,2],[3,4,5],[6,7,8], [0,3,6],[1,4,7],[2,5,8], [0,4,8],[2,4,6]  ];\n\n    uint turn = 0;\n    uint private p1_bet;\n    uint private p2_bet;\n    bool p1_in = false;\n    bool p2_in = false;\n    bool flag = false;\n    uint num_games = 0;\n    uint num_moves = 0;\n    uint[] score = new uint[](2);\n    uint hack = 0;\n    string stats = \"valid\";\n\n//     function strConcat(string _a, string _b, string _c, string _d, string _e) internal pure returns (string){\n//     bytes memory _ba = bytes(_a);\n//     bytes memory _bb = bytes(_b);\n//     bytes memory _bc = bytes(_c);\n//     bytes memory _bd = bytes(_d);\n//     bytes memory _be = bytes(_e);\n//     string memory abcde = new string(_ba.length + _bb.length + _bc.length + _bd.length + _be.length);\n//     bytes memory babcde = bytes(abcde);\n//     uint k = 0;\n//     for (uint i = 0; i < _ba.length; i++) babcde[k++] = _ba[i];\n//     for (i = 0; i < _bb.length; i++) babcde[k++] = _bb[i];\n//     for (i = 0; i < _bc.length; i++) babcde[k++] = _bc[i];\n//     for (i = 0; i < _bd.length; i++) babcde[k++] = _bd[i];\n//     for (i = 0; i < _be.length; i++) babcde[k++] = _be[i];\n//     return string(babcde);\n// }\n\n//     function uintToString(uint v)internal pure returns (string str) {\n//         uint maxlength = 100;\n//         bytes memory reversed = new bytes(maxlength);\n//         uint i = 0;\n//         while (v != 0) {\n//             uint remainder = v % 10;\n//             v = v / 10;\n//             reversed[i++] = byte(48 + remainder);\n//         }\n//         bytes memory s = new bytes(i + 1);\n//         for (uint j = 0; j <= i; j++) {\n//             s[j] = reversed[i - j];\n//         }\n//         str = string(s);\n//     }\n\n    function joinplayer1() public payable returns (string memory){\n        if(p1_in){\n            hack = 1;\n            return \"A game in progress\";\n        }\n        hack = 0;\n        p1_in = true;\n        player1 = msg.sender;\n        p1_bet = msg.value;\n        return \"You've joined the game\";\n    }\n    function status() public view returns(string memory){\n        if(hack == 0){\n            if(!p1_in && !p2_in) return \"No player has joined yet\";\n            if(!p1_in && p2_in) return \"this case is not possible\";\n            if(p1_in && !p2_in) return \"Waiting for player 2\";\n            if(p1_in && p2_in) return \"Game is currently going on\";\n        }\n        else if(hack == 1){\n            return \"Hacker trying to enter as player 1\";\n        }\n        else if(hack == 2){\n            return \"Hacker trying to enter as player 2\";\n        }\n    }\n\n    function joinplayer2() public payable returns(string memory){\n        if(!p1_in) return \"wait for player1 to join\";\n        if(p2_in && player2 != msg.sender) \n        {\n            hack = 2;\n            return \"someone else trying to join as player2\";\n        }\n        player2 = msg.sender;\n        p2_bet = msg.value;\n        p2_in = true;\n        hack = 0;\n        return \"Game begins!!!!!\";\n    }\n\n    function init_board() public {\n        for(uint i = 0;i < 9;i++)\n        {\n            board[i] = 0;\n        }\n    }\n\n    function move(uint cell, uint pl) public returns (int) {\n        if(board[cell]!=0) return -1;\n        board[cell] = turn + 1;\n        if(isWin() == 1)\n        {\n            score[pl] += 1;\n            return 1;\n        }\n        turn ^= 1;\n        stats = \"valid\";\n        return 0;\n    }\n\n    function isWin() public view returns (uint){\n        for(uint i = 0;i < 8 ; i++)\n        {\n            uint[] memory b = pattern[i];\n            if(board[b[0]] != 0 && board[b[0]] == board[b[1]] && board[b[0]] == board[b[2]])                return 1;\n        }\n        return 0;\n    }\n\n    function gameStatus() public view returns(string){\n        return stats;\n    }\n\n    function game(uint mov) public{\n        if(!p1_in || !p2_in) \n        {\n            stats = \"Can't play a game without two players\";\n            return;\n        }\n\n        if(mov < 1 || mov > 9)\n        {\n            stats = \"Invalid move\";\n            return;\n        }\n        if(num_games == 0 || num_games == 2){\n            if(flag==false){\n                init_board();\n                num_moves = 0;\n                turn = 0;\n                flag = true;\n            }\n            if (msg.sender == player1 && turn==0)\n            {\n                int ret1 = move(mov,0);\n                if(ret1==1){\n                    stats = \"game won by player 1\";\n                    num_games++;\n                    flag = false;\n                    return;\n                }\n                else if(ret1==-1){\n                    stats = \"cell already filled\";\n                    return;\n                }\n                num_moves++;\n            }\n            else if(msg.sender == player2 && turn==1){\n                int ret2 = move(mov,1);\n                if(ret2==1){\n                    stats = \"game won by player 2\";\n                    num_games++;\n                    flag = false;\n                    return;\n                }\n                else if(ret2==-1){\n                    stats = \"cell already filled\";\n                    return;\n                }\n                num_moves++;\n            }\n            else{\n                stats = \"Its not your turn to play\";\n                return;\n            }\n            if(num_moves==9)\n            {\n                flag = false;\n                num_games++;\n                stats = \"Its a draw\";\n                return;\n            }\n            if(turn==0)\n            {\n                stats = \"player 2 made move\";\n            }\n            else\n            {\n                stats = \"player 1 made move\";\n            }\n        }\n        else if(num_games == 1 || num_games == 3)\n        {\n            if(flag==false){\n                num_moves = 0;\n                turn = 0;\n                flag = true;\n            }\n            if (msg.sender == player1 && turn==1)\n            {\n                int ret3 = move(mov,0);\n                if(ret3==1){\n                    stats = \"game won by player 1\";\n                    num_games++;\n                    flag = false;\n                    return;\n                }\n                else if(ret3==-1){\n                    stats = \"cell already filled\";\n                    return;\n                }\n                num_moves++;\n            }\n            else if(msg.sender == player2 && turn==0){\n                int ret4 = move(mov,1);\n                if(ret4==1){\n                    stats = \"game won by player 2\";\n                    num_games++;\n                    flag = false;\n                    return;\n                }\n                else if(ret4==-1){\n                    stats = \"cell already filled\";\n                    return;\n                }\n                num_moves++;\n            }\n            else{\n                stats = \"Its not your turn to play\";\n                return;\n            }\n            if(num_moves==9)\n            {\n                flag = false;\n                num_games++;\n                stats = \"Its a draw\";\n                return;\n            }\n            if(turn==1)\n            {\n                stats = \"player 2 made move\";\n            }\n            else\n            {\n                stats = \"player 1 made move\";\n            }\n        }\n        if(num_games == 4)\n        {\n            uint total_bet = p1_bet+p2_bet;\n            if(score[0] > score[1])\n            {\n                player1.transfer(total_bet);\n            }\n            else if( score[1] > score[0])\n            {\n                player2.transfer(total_bet);\n            }\n        }\n\n    }\n}",
  "sourcePath": "/home/akshay/Documents/Course docs/Blockchain/assignments/1/tictactoe-blockchain/contracts/tictactoe.sol",
  "compiler": {
    "name": "solc",
    "version": "0.4.22+commit.4cb486ee.Emscripten.clang"
  },
  "schemaVersion": "3.0.15",
  "updatedAt": "2019-09-14T17:49:29.644Z",
  "devdoc": {
    "methods": {}
  },
  "userdoc": {
    "methods": {}
  }
}