{
  "contractName": "tictactoe",
  "abi": [
    {
      "constant": false,
      "inputs": [],
      "name": "joinplayer1",
      "outputs": [
        {
          "name": "",
          "type": "string"
        }
      ],
      "payable": true,
      "stateMutability": "payable",
      "type": "function"
    },
    {
      "constant": true,
      "inputs": [],
      "name": "status",
      "outputs": [
        {
          "name": "",
          "type": "string"
        }
      ],
      "payable": false,
      "stateMutability": "view",
      "type": "function"
    },
    {
      "constant": false,
      "inputs": [],
      "name": "joinplayer2",
      "outputs": [
        {
          "name": "",
          "type": "string"
        }
      ],
      "payable": true,
      "stateMutability": "payable",
      "type": "function"
    },
    {
      "constant": false,
      "inputs": [
        {
          "name": "inc",
          "type": "uint256"
        }
      ],
      "name": "init_board",
      "outputs": [],
      "payable": false,
      "stateMutability": "nonpayable",
      "type": "function"
    },
    {
      "constant": false,
      "inputs": [
        {
          "name": "cell",
          "type": "uint256"
        },
        {
          "name": "pl",
          "type": "uint256"
        }
      ],
      "name": "move",
      "outputs": [
        {
          "name": "",
          "type": "int256"
        }
      ],
      "payable": false,
      "stateMutability": "nonpayable",
      "type": "function"
    },
    {
      "constant": true,
      "inputs": [],
      "name": "isWin",
      "outputs": [
        {
          "name": "",
          "type": "uint256"
        }
      ],
      "payable": false,
      "stateMutability": "view",
      "type": "function"
    },
    {
      "constant": true,
      "inputs": [],
      "name": "gameStatus",
      "outputs": [
        {
          "name": "",
          "type": "uint256"
        },
        {
          "name": "",
          "type": "uint256"
        },
        {
          "name": "",
          "type": "uint256"
        }
      ],
      "payable": false,
      "stateMutability": "view",
      "type": "function"
    },
    {
      "constant": false,
      "inputs": [
        {
          "name": "mov",
          "type": "uint256"
        }
      ],
      "name": "game",
      "outputs": [
        {
          "name": "",
          "type": "string"
        }
      ],
      "payable": false,
      "stateMutability": "nonpayable",
      "type": "function"
    }
  ],
  "bytecode": "0x60806040526009604051908082528060200260200182016040528015620000355781602001602082028038833980820191505090505b50600090805190602001906200004d92919062000292565b5061010060405190810160405280606060405190810160405280600060ff168152602001600160ff168152602001600260ff168152508152602001606060405190810160405280600360ff168152602001600460ff168152602001600560ff168152508152602001606060405190810160405280600660ff168152602001600760ff168152602001600860ff168152508152602001606060405190810160405280600060ff168152602001600360ff168152602001600660ff168152508152602001606060405190810160405280600160ff168152602001600460ff168152602001600760ff168152508152602001606060405190810160405280600260ff168152602001600560ff168152602001600860ff168152508152602001606060405190810160405280600060ff168152602001600460ff168152602001600860ff168152508152602001606060405190810160405280600260ff168152602001600460ff168152602001600660ff168152508152506003906008620001d3929190620002e4565b5060006004556000600760006101000a81548160ff0219169083151502179055506000600760016101000a81548160ff0219169083151502179055506000600760026101000a81548160ff021916908315150217905550600060085560006009556002604051908082528060200260200182016040528015620002655781602001602082028038833980820191505090505b50600a90805190602001906200027d92919062000292565b503480156200028b57600080fd5b5062000419565b828054828255906000526020600020908101928215620002d1579160200282015b82811115620002d0578251825591602001919060010190620002b3565b5b509050620002e0919062000346565b5090565b82805482825590600052602060002090810192821562000333579160200282015b828111156200033257825182906003620003219291906200036e565b509160200191906001019062000305565b5b509050620003429190620003c5565b5090565b6200036b91905b80821115620003675760008160009055506001016200034d565b5090565b90565b828054828255906000526020600020908101928215620003b2579160200282015b82811115620003b1578251829060ff169055916020019190600101906200038f565b5b509050620003c1919062000346565b5090565b620003f391905b80821115620003ef5760008181620003e59190620003f6565b50600101620003cc565b5090565b90565b508054600082559060005260206000209081019062000416919062000346565b50565b6113c380620004296000396000f30060806040526004361061008e576000357c0100000000000000000000000000000000000000000000000000000000900463ffffffff1680630867408f14610093578063200d2ed2146100de57806346609d7f1461016e57806356f251d714610199578063722fed7e1461021c578063c16a24bf14610255578063c27da97c14610282578063cddbe72914610305575b600080fd5b34801561009f57600080fd5b506100c860048036038101908080359060200190929190803590602001909291905050506103ab565b6040518082815260200191505060405180910390f35b3480156100ea57600080fd5b506100f3610477565b6040518080602001828103825283818151815260200191508051906020019080838360005b83811015610133578082015181840152602081019050610118565b50505050905090810190601f1680156101605780820380516001836020036101000a031916815260200191505b509250505060405180910390f35b34801561017a57600080fd5b50610183610629565b6040518082815260200191505060405180910390f35b6101a16107da565b6040518080602001828103825283818151815260200191508051906020019080838360005b838110156101e15780820151818401526020810190506101c6565b50505050905090810190601f16801561020e5780820380516001836020036101000a031916815260200191505b509250505060405180910390f35b34801561022857600080fd5b506102316108e5565b60405180848152602001838152602001828152602001935050505060405180910390f35b34801561026157600080fd5b50610280600480360381019080803590602001909291905050506108fe565b005b61028a61094f565b6040518080602001828103825283818151815260200191508051906020019080838360005b838110156102ca5780820151818401526020810190506102af565b50505050905090810190601f1680156102f75780820380516001836020036101000a031916815260200191505b509250505060405180910390f35b34801561031157600080fd5b5061033060048036038101908080359060200190929190505050610a42565b6040518080602001828103825283818151815260200191508051906020019080838360005b83811015610370578082015181840152602081019050610355565b50505050905090810190601f16801561039d5780820380516001836020036101000a031916815260200191505b509250505060405180910390f35b6000806000848154811015156103bd57fe5b90600052602060002001541415156103f7577fffffffffffffffffffffffffffffffffffffffffffffffffffffffffffffffff9050610471565b60016004540160008481548110151561040c57fe5b90600052602060002001819055506001610424610629565b141561045b576001600a8381548110151561043b57fe5b906000526020600020016000828254019250508190555060019050610471565b6001600460008282541892505081905550600090505b92915050565b6060600760009054906101000a900460ff161580156104a35750600760019054906101000a900460ff16155b156104e5576040805190810160405280601881526020017f4e6f20706c6179657220686173206a6f696e65642079657400000000000000008152509050610626565b600760009054906101000a900460ff1615801561050e5750600760019054906101000a900460ff165b15610550576040805190810160405280601981526020017f746869732063617365206973206e6f7420706f737369626c65000000000000008152509050610626565b600760009054906101000a900460ff1680156105795750600760019054906101000a900460ff16155b156105bb576040805190810160405280601481526020017f57616974696e6720666f7220706c6179657220320000000000000000000000008152509050610626565b600760009054906101000a900460ff1680156105e35750600760019054906101000a900460ff165b15610625576040805190810160405280601a81526020017f47616d652069732063757272656e746c7920676f696e67206f6e0000000000008152509050610626565b5b90565b6000806060600091505b60088210156107d05760038281548110151561064b57fe5b9060005260206000200180548060200260200160405190810160405280929190818152602001828054801561069f57602002820191906000526020600020905b81548152602001906001019080831161068b575b505050505090506000808260008151811015156106b857fe5b906020019060200201518154811015156106ce57fe5b906000526020600020015414158015610748575060008160018151811015156106f357fe5b9060200190602002015181548110151561070957fe5b9060005260206000200154600082600081518110151561072557fe5b9060200190602002015181548110151561073b57fe5b9060005260206000200154145b80156107b55750600081600281518110151561076057fe5b9060200190602002015181548110151561077657fe5b9060005260206000200154600082600081518110151561079257fe5b906020019060200201518154811015156107a857fe5b9060005260206000200154145b156107c357600192506107d5565b8180600101925050610633565b600092505b505090565b6060600760009054906101000a900460ff1615806108045750600760019054906101000a900460ff165b15610846576040805190810160405280601881526020017f7761697420666f7220706c617965723120746f206a6f696e000000000000000081525090506108e2565b33600260006101000a81548173ffffffffffffffffffffffffffffffffffffffff021916908373ffffffffffffffffffffffffffffffffffffffff160217905550346006819055506001600760016101000a81548160ff0219169083151502179055506040805190810160405280601081526020017f47616d6520626567696e7321212121210000000000000000000000000000000081525090505b90565b6000806000600854600954600454925092509250909192565b60008090505b6009811015610938576000808281548110151561091d57fe5b90600052602060002001819055508080600101915050610904565b60028281151561094457fe5b066004819055505050565b6060600760009054906101000a900460ff16156109a3576040805190810160405280601281526020017f412067616d6520696e2070726f677265737300000000000000000000000000008152509050610a3f565b6001600760006101000a81548160ff02191690831515021790555033600160006101000a81548173ffffffffffffffffffffffffffffffffffffffff021916908373ffffffffffffffffffffffffffffffffffffffff160217905550346005819055506040805190810160405280601681526020017f596f75277665206a6f696e6564207468652067616d650000000000000000000081525090505b90565b60606000806000806000600760009054906101000a900460ff161580610a755750600760019054906101000a900460ff16155b15610ade57606060405190810160405280602581526020017f43616e277420706c617920612067616d6520776974686f75742074776f20706c81526020017f6179657273000000000000000000000000000000000000000000000000000000815250955061138d565b6001871080610aed5750600987115b15610b2f576040805190810160405280600c81526020017f496e76616c6964206d6f76650000000000000000000000000000000000000000815250955061138d565b60006008541480610b4257506002600854145b15610eac5760001515600760029054906101000a900460ff1615151415610b8f57600060098190555060006004819055506001600760026101000a81548160ff0219169083151502179055505b600160009054906101000a900473ffffffffffffffffffffffffffffffffffffffff1673ffffffffffffffffffffffffffffffffffffffff163373ffffffffffffffffffffffffffffffffffffffff16148015610bee57506000600454145b15610cc257610bfe8760006103ab565b94506001851415610c46576040805190810160405280601a81526020017f66697273742067616d6520776f6e20627920706c617965722031000000000000815250955061138d565b7fffffffffffffffffffffffffffffffffffffffffffffffffffffffffffffffff851415610cab576040805190810160405280601381526020017f63656c6c20616c72656164792066696c6c656400000000000000000000000000815250955061138d565b600960008154809291906001019190505550610e33565b600260009054906101000a900473ffffffffffffffffffffffffffffffffffffffff1673ffffffffffffffffffffffffffffffffffffffff163373ffffffffffffffffffffffffffffffffffffffff16148015610d2157506001600454145b15610df557610d318760016103ab565b93506001841415610d79576040805190810160405280601a81526020017f66697273742067616d6520776f6e20627920706c617965722032000000000000815250955061138d565b7fffffffffffffffffffffffffffffffffffffffffffffffffffffffffffffffff841415610dde576040805190810160405280601381526020017f63656c6c20616c72656164792066696c6c656400000000000000000000000000815250955061138d565b600960008154809291906001019190505550610e32565b6040805190810160405280601981526020017f497473206e6f7420796f7572207475726e20746f20706c617900000000000000815250955061138d565b5b600980541415610ea7576000600760026101000a81548160ff0219169083151502179055506008600081548092919060010191905055506040805190810160405280600a81526020017f4974732061206472617700000000000000000000000000000000000000000000815250955061138d565b611226565b60016008541480610ebf57506003600854145b156112255760001515600760029054906101000a900460ff1615151415610f0c57600060098190555060006004819055506001600760026101000a81548160ff0219169083151502179055505b600160009054906101000a900473ffffffffffffffffffffffffffffffffffffffff1673ffffffffffffffffffffffffffffffffffffffff163373ffffffffffffffffffffffffffffffffffffffff16148015610f6b57506001600454145b1561103f57610f7b8760006103ab565b92506001831415610fc3576040805190810160405280601a81526020017f66697273742067616d6520776f6e20627920706c617965722031000000000000815250955061138d565b7fffffffffffffffffffffffffffffffffffffffffffffffffffffffffffffffff831415611028576040805190810160405280601381526020017f63656c6c20616c72656164792066696c6c656400000000000000000000000000815250955061138d565b6009600081548092919060010191905055506111b0565b600260009054906101000a900473ffffffffffffffffffffffffffffffffffffffff1673ffffffffffffffffffffffffffffffffffffffff163373ffffffffffffffffffffffffffffffffffffffff1614801561109e57506000600454145b15611172576110ae8760016103ab565b915060018214156110f6576040805190810160405280601a81526020017f66697273742067616d6520776f6e20627920706c617965722032000000000000815250955061138d565b7fffffffffffffffffffffffffffffffffffffffffffffffffffffffffffffffff82141561115b576040805190810160405280601381526020017f63656c6c20616c72656164792066696c6c656400000000000000000000000000815250955061138d565b6009600081548092919060010191905055506111af565b6040805190810160405280601981526020017f497473206e6f7420796f7572207475726e20746f20706c617900000000000000815250955061138d565b5b600980541415611224576000600760026101000a81548160ff0219169083151502179055506008600081548092919060010191905055506040805190810160405280600a81526020017f4974732061206472617700000000000000000000000000000000000000000000815250955061138d565b5b5b6004600854141561138c57600654600554019050600a600181548110151561124a57fe5b9060005260206000200154600a600081548110151561126557fe5b906000526020600020015411156112e457600160009054906101000a900473ffffffffffffffffffffffffffffffffffffffff1673ffffffffffffffffffffffffffffffffffffffff166108fc829081150290604051600060405180830381858888f193505050501580156112de573d6000803e3d6000fd5b5061138b565b600a60008154811015156112f457fe5b9060005260206000200154600a600181548110151561130f57fe5b9060005260206000200154111561138a57600260009054906101000a900473ffffffffffffffffffffffffffffffffffffffff1673ffffffffffffffffffffffffffffffffffffffff166108fc829081150290604051600060405180830381858888f19350505050158015611388573d6000803e3d6000fd5b505b5b5b5b50505050509190505600a165627a7a72305820dc78be379a8f89191b11c23bcf535224a05278c443f2d1bda1dec8d9e0194ab50029",
  "source": "pragma solidity >=0.4.22 <0.6.0;\n\n// \"x\" -> 1\n// \"o\" -> 2\n\ncontract tictactoe {\n    uint[] board = new uint[](9);\n    address player1;\n    address player2;\n    uint[][] pattern = [[0,1,2],[3,4,5],[6,7,8], [0,3,6],[1,4,7],[2,5,8], [0,4,8],[2,4,6]  ];\n\n    uint turn = 0;\n    uint private p1_bet;\n    uint private p2_bet;\n    bool p1_in = false;\n    bool p2_in = false;\n    bool flag = false;\n    uint num_games = 0;\n    uint num_moves = 0;\n    uint[] score = new uint[](2);\n\n    function joinplayer1() public payable returns (string memory){\n        if(p1_in) return \"A game in progress\";\n        p1_in = true;\n        player1 = msg.sender;\n        p1_bet = msg.value;\n        return \"You've joined the game\";\n    }\n    function status() public view returns(string memory){\n        if(!p1_in && !p2_in) return \"No player has joined yet\";\n        if(!p1_in && p2_in) return \"this case is not possible\";\n        if(p1_in && !p2_in) return \"Waiting for player 2\";\n        if(p1_in && p2_in) return \"Game is currently going on\";\n    }\n\n    function joinplayer2() public payable returns(string memory){\n        if(!p1_in || p2_in) return \"wait for player1 to join\";\n        player2 = msg.sender;\n        p2_bet = msg.value;\n        p2_in = true;\n        return \"Game begins!!!!!\";\n    }\n\n    function init_board(uint inc) public {\n        for(uint i = 0;i < 9;i++)\n        {\n            board[i] = 0;\n        }\n        turn = inc % 2;\n    }\n\n    function move(uint cell, uint pl) public returns (int) {\n        if(board[cell]!=0) return -1;\n        board[cell] = turn + 1;\n        if(isWin() == 1)\n        {\n            score[pl] += 1;\n            return 1;\n        }\n        turn ^= 1;\n        return 0;\n    }\n\n    function isWin() public view returns (uint){\n        for(uint i = 0;i < 8 ; i++)\n        {\n            uint[] memory b = pattern[i];\n            if(board[b[0]] != 0 && board[b[0]] == board[b[1]] && board[b[0]] == board[b[2]])                return 1;\n        }\n        return 0;\n    }\n\n    function gameStatus() public view returns(uint, uint, uint){\n        return(num_games,num_moves,turn);\n    }\n\n    function game(uint mov) public returns (string memory){\n        if(!p1_in || !p2_in) return \"Can't play a game without two players\";\n        if(mov < 1 || mov > 9) return \"Invalid move\";\n        if(num_games == 0 || num_games == 2){\n            if(flag==false){\n                num_moves = 0;\n                turn = 0;\n                flag = true;\n            }\n            if (msg.sender == player1 && turn==0)\n            {\n                int ret1 = move(mov,0);\n                if(ret1==1){\n                    return \"first game won by player 1\";\n                    num_games++;\n                    flag = false;\n                }\n                else if(ret1==-1){\n                    return \"cell already filled\";\n                }\n                num_moves++;\n            }\n            else if(msg.sender == player2 && turn==1){\n                int ret2 = move(mov,1);\n                if(ret2==1){\n                    return \"first game won by player 2\";\n                    num_games++;\n                    flag = false;\n                }\n                else if(ret2==-1){\n                    return \"cell already filled\";\n                }\n                num_moves++;\n            }\n            else{\n                return \"Its not your turn to play\";\n            }\n            if(num_moves==9)\n            {\n                flag = false;\n                num_games++;\n                return \"Its a draw\";\n            }\n        }\n        else if(num_games == 1 || num_games == 3)\n        {\n            if(flag==false){\n                num_moves = 0;\n                turn = 0;\n                flag = true;\n            }\n            if (msg.sender == player1 && turn==1)\n            {\n                int ret3 = move(mov,0);\n                if(ret3==1){\n                    return \"first game won by player 1\";\n                    num_games++;\n                    flag = false;\n                }\n                else if(ret3==-1){\n                    return \"cell already filled\";\n                }\n                num_moves++;\n            }\n            else if(msg.sender == player2 && turn==0){\n                int ret4 = move(mov,1);\n                if(ret4==1){\n                    return \"first game won by player 2\";\n                    num_games++;\n                    flag = false;\n                }\n                else if(ret4==-1){\n                    return \"cell already filled\";\n                }\n                num_moves++;\n            }\n            else{\n                return \"Its not your turn to play\";\n            }\n            if(num_moves==9)\n            {\n                flag = false;\n                num_games++;\n                return \"Its a draw\";\n            }\n        }\n        if(num_games == 4)\n        {\n            uint total_bet = p1_bet+p2_bet;\n            if(score[0] > score[1])\n            {\n                player1.transfer(total_bet);\n            }\n            else if( score[1] > score[0])\n            {\n                player2.transfer(total_bet);\n            }\n        }\n    }\n}",
  "sourcePath": "/home/akshay/Documents/Course docs/Blockchain/assignments/1/tictactoe-blockchain/contracts/tictactoe.sol",
  "compiler": {
    "name": "solc",
    "version": "0.4.22+commit.4cb486ee.Emscripten.clang"
  },
  "schemaVersion": "3.0.15",
  "updatedAt": "2019-09-14T11:53:12.058Z",
  "devdoc": {
    "methods": {}
  },
  "userdoc": {
    "methods": {}
  }
}