{
  "contractName": "tictactoe",
  "abi": [
    {
      "constant": false,
      "inputs": [],
      "name": "joinplayer1",
      "outputs": [
        {
          "name": "",
          "type": "string"
        }
      ],
      "payable": true,
      "stateMutability": "payable",
      "type": "function"
    },
    {
      "constant": false,
      "inputs": [],
      "name": "joinplayer2",
      "outputs": [
        {
          "name": "",
          "type": "string"
        }
      ],
      "payable": true,
      "stateMutability": "payable",
      "type": "function"
    },
    {
      "constant": false,
      "inputs": [
        {
          "name": "inc",
          "type": "uint256"
        }
      ],
      "name": "init_board",
      "outputs": [],
      "payable": false,
      "stateMutability": "nonpayable",
      "type": "function"
    },
    {
      "constant": false,
      "inputs": [
        {
          "name": "cell",
          "type": "uint256"
        }
      ],
      "name": "move",
      "outputs": [
        {
          "name": "",
          "type": "int256"
        }
      ],
      "payable": false,
      "stateMutability": "nonpayable",
      "type": "function"
    },
    {
      "constant": false,
      "inputs": [],
      "name": "game",
      "outputs": [
        {
          "name": "",
          "type": "string"
        }
      ],
      "payable": false,
      "stateMutability": "nonpayable",
      "type": "function"
    }
  ],
  "bytecode": "0x60806040526009604051908082528060200260200182016040528015620000355781602001602082028038833980820191505090505b50600090805190602001906200004d92919062000277565b5061010060405190810160405280606060405190810160405280600060ff168152602001600160ff168152602001600260ff168152508152602001606060405190810160405280600360ff168152602001600460ff168152602001600560ff168152508152602001606060405190810160405280600660ff168152602001600760ff168152602001600860ff168152508152602001606060405190810160405280600060ff168152602001600360ff168152602001600660ff168152508152602001606060405190810160405280600160ff168152602001600460ff168152602001600760ff168152508152602001606060405190810160405280600260ff168152602001600560ff168152602001600860ff168152508152602001606060405190810160405280600060ff168152602001600460ff168152602001600860ff168152508152602001606060405190810160405280600260ff168152602001600460ff168152602001600660ff168152508152506003906008620001d3929190620002c9565b5060006004556000600760006101000a81548160ff0219169083151502179055506000600760016101000a81548160ff0219169083151502179055506000600855600060095560026040519080825280602002602001820160405280156200024a5781602001602082028038833980820191505090505b50600a90805190602001906200026292919062000277565b503480156200027057600080fd5b50620003fe565b828054828255906000526020600020908101928215620002b6579160200282015b82811115620002b557825182559160200191906001019062000298565b5b509050620002c591906200032b565b5090565b82805482825590600052602060002090810192821562000318579160200282015b8281111562000317578251829060036200030692919062000353565b5091602001919060010190620002ea565b5b509050620003279190620003aa565b5090565b6200035091905b808211156200034c57600081600090555060010162000332565b5090565b90565b82805482825590600052602060002090810192821562000397579160200282015b8281111562000396578251829060ff1690559160200191906001019062000374565b5b509050620003a691906200032b565b5090565b620003d891905b80821115620003d45760008181620003ca9190620003db565b50600101620003b1565b5090565b90565b5080546000825590600052602060002090810190620003fb91906200032b565b50565b610793806200040e6000396000f30060806040526004361061006d576000357c0100000000000000000000000000000000000000000000000000000000900463ffffffff16806356f251d71461007257806387cb15f7146100f5578063c16a24bf14610136578063c27da97c14610163578063c3fe3e28146101e6575b600080fd5b61007a610276565b6040518080602001828103825283818151815260200191508051906020019080838360005b838110156100ba57808201518184015260208101905061009f565b50505050905090810190601f1680156100e75780820380516001836020036101000a031916815260200191505b509250505060405180910390f35b34801561010157600080fd5b5061012060048036038101908080359060200190929190505050610381565b6040518082815260200191505060405180910390f35b34801561014257600080fd5b506101616004803603810190808035906020019092919050505061040b565b005b61016b61045c565b6040518080602001828103825283818151815260200191508051906020019080838360005b838110156101ab578082015181840152602081019050610190565b50505050905090810190601f1680156101d85780820380516001836020036101000a031916815260200191505b509250505060405180910390f35b3480156101f257600080fd5b506101fb610566565b6040518080602001828103825283818151815260200191508051906020019080838360005b8381101561023b578082015181840152602081019050610220565b50505050905090810190601f1680156102685780820380516001836020036101000a031916815260200191505b509250505060405180910390f35b6060600760009054906101000a900460ff1615806102a05750600760019054906101000a900460ff165b156102e2576040805190810160405280601881526020017f7761697420666f7220706c617965723120746f206a6f696e0000000000000000815250905061037e565b33600260006101000a81548173ffffffffffffffffffffffffffffffffffffffff021916908373ffffffffffffffffffffffffffffffffffffffff160217905550346006819055506001600760016101000a81548160ff0219169083151502179055506040805190810160405280601081526020017f47616d6520626567696e7321212121210000000000000000000000000000000081525090505b90565b60008060008381548110151561039357fe5b90600052602060002001541415156103cd577fffffffffffffffffffffffffffffffffffffffffffffffffffffffffffffffff9050610406565b6001600454016000838154811015156103e257fe5b90600052602060002001819055506001600460008282541892505081905550600090505b919050565b60008090505b6009811015610445576000808281548110151561042a57fe5b90600052602060002001819055508080600101915050610411565b60028281151561045157fe5b066004819055505050565b6060600760019054906101000a900460ff16806104855750600760009054906101000a900460ff165b156104c7576040805190810160405280601281526020017f412067616d6520696e2070726f677265737300000000000000000000000000008152509050610563565b33600160006101000a81548173ffffffffffffffffffffffffffffffffffffffff021916908373ffffffffffffffffffffffffffffffffffffffff160217905550346005819055506001600760006101000a81548160ff0219169083151502179055506040805190810160405280601681526020017f596f75277665206a6f696e6564207468652067616d650000000000000000000081525090505b90565b60606000600760009054906101000a900460ff1615806105935750600760019054906101000a900460ff16155b156105fc57606060405190810160405280602581526020017f43616e277420706c617920612067616d6520776974686f75742074776f20706c81526020017f61796572730000000000000000000000000000000000000000000000000000008152509150610763565b6004600854141561076257600654600554019050600a600181548110151561062057fe5b9060005260206000200154600a600081548110151561063b57fe5b906000526020600020015411156106ba57600160009054906101000a900473ffffffffffffffffffffffffffffffffffffffff1673ffffffffffffffffffffffffffffffffffffffff166108fc829081150290604051600060405180830381858888f193505050501580156106b4573d6000803e3d6000fd5b50610761565b600a60008154811015156106ca57fe5b9060005260206000200154600a60018154811015156106e557fe5b9060005260206000200154111561076057600260009054906101000a900473ffffffffffffffffffffffffffffffffffffffff1673ffffffffffffffffffffffffffffffffffffffff166108fc829081150290604051600060405180830381858888f1935050505015801561075e573d6000803e3d6000fd5b505b5b5b5b50905600a165627a7a72305820baf9e16f51182990c1dba225c36cc6b6784cfa971293a0d900797d84ac35d1640029",
  "source": "pragma solidity >=0.4.22 <0.6.0;\n\n// \"x\" -> 1 \n// \"o\" -> 2\n\ncontract tictactoe {\n    uint[] board = new uint[](9);\n    address  player1;\n    address  player2;\n    uint[][] pattern = [[0,1,2],[3,4,5],[6,7,8], [0,3,6],[1,4,7],[2,5,8], [0,4,8],[2,4,6]  ];\n    \n    uint turn = 0;\n    uint private p1_bet;\n    uint private p2_bet;\n    bool p1_in = false;\n    bool p2_in = false;\n    uint num_games = 0;\n    uint num_moves = 0;\n    uint[] score = new uint[](2);\n    \n    function joinplayer1() public payable returns (string memory){\n        if(p2_in || p1_in) return \"A game in progress\";\n        player1 = msg.sender;\n        p1_bet = msg.value;\n        p1_in = true;\n        return \"You've joined the game\";\n    }\n\n    \n    function joinplayer2() public payable returns(string memory){\n        if(!p1_in || p2_in) return \"wait for player1 to join\";\n        player2 = msg.sender;\n        p2_bet = msg.value;\n        p2_in = true;\n        return \"Game begins!!!!!\";\n    }\n    \n    function init_board(uint inc) public {\n        for(uint i = 0;i < 9;i++)\n        {\n            board[i] = 0;\n        }\n        turn = inc % 2;\n    }\n    \n    // function move(uint cell, uint pl) public returns (int) {\n    function move(uint cell) public returns (int) {\n        if(board[cell]!=0) return -1;\n        board[cell] = turn + 1;\n        // if(isWin() == 1)\n        // {\n        //     score[pl] += 1;\n        //     return 1; \n        // }  \n        turn ^= 1;\n        return 0;\n    }\n    \n    // function isWin() public returns (uint){\n    //     for(uint i = 0;i < 8 ; i++)\n    //     {\n    //         uint[] memory b = pattern[i];\n    //         if(board[b[0]] != 0 && board[b[0]] == board[b[1]] && board[b[0]] == board[b[2]]) \n    //             return 1;\n    //     }\n    //     return 0;\n    // }\n    \n    \n    function game() public returns (string memory){\n        if(!p1_in || !p2_in) return \"Can't play a game without two players\";\n        \n        if(num_games == 4)\n        {\n            uint total_bet = p1_bet+p2_bet;\n            if(score[0] > score[1])\n            {\n                player1.transfer(total_bet);\n            }\n            else if( score[1] > score[0])\n            {\n                player2.transfer(total_bet);\n            }\n        }\n        \n    }\n    \n    \n}",
  "sourcePath": "/home/pragun/pragun/sem5/blockchain/Assgn/a1/contracts/tictactoe.sol",
  "compiler": {
    "name": "solc",
    "version": "0.4.22+commit.4cb486ee.Emscripten.clang"
  },
  "schemaVersion": "3.0.15",
  "updatedAt": "2019-09-13T11:30:11.508Z",
  "devdoc": {
    "methods": {}
  },
  "userdoc": {
    "methods": {}
  }
}